:100000000C9472000C9487000C9487000C94870069
:100010000C9487000C9487000C9487000C94870044
:100020000C9487000C9487000C9487000C94870034
:100030000C9487000C9487000C9487000C94870024
:100040000C9487000C9487000C9487000C94870014
:100050000C9487000C9487000C9487000C94870004
:100060000C9487000C9487000C9487000C948700F4
:100070000C9487000C9487000C9487000C948700E4
:100080000C9487000C9487000C9487000C948700D4
:100090000C9487000C9487000C9487000C948700C4
:1000A0000C9487000C9487000C9487000C948700B4
:1000B0000C9487000C9487000C9487000C948700A4
:1000C0000C9487000C9487000C9487000C94870094
:1000D0000C9487000C9487000C9487000C94870084
:1000E0000C94870011241FBECFEFD1E2DEBFCDBF3D
:1000F00012E0A0E0B2E0E0E0F2E002C005900D9274
:10010000A238B107D9F70E9489000C94FE000C9424
:100110000000CF93DF9300D0CDB7DEB7CE010296BB
:100120000E94CF0060E072E0CE0102960E94E100E2
:1001300064E272E0CE0102960E94E100CE010196D7
:100140000E94C50068E372E0CE0102960E94E100C1
:100150006BE472E0CE0102960E94E10069E672E073
:10016000CE0102960E94E10010E0612FCE010196BF
:100170000E94CD001F5F2FEF83EC99E0215080405B
:100180009040E1F700C00000F0CF8FEF84B915B8C0
:1001900083EA84BD85E085BD089567BD089587E63F
:1001A0008093C40088E18093C1008EE08093C200F8
:1001B0000895E0ECF0E0808185FFFDCF6093C600FC
:1001C00008950F931F93CF93DF938C01EB01688108
:1001D000662339F02196C8010E94D9006991611106
:1001E000FACF6DE0C8010E94D9006AE0C8010E9400
:1001F000D900DF91CF911F910F910895F894FFCF0F
:100200002A2A2A2051432D424C4344204F53205345
:100210007461727475702053657175656E636520C5
:100220002A2A2A00203E205541525420696E6974C2
:1002300069616C697A656400203E2050574D2069E1
:100240006E697469616C697A656400537461727473
:1002500075702053657175656E6365207375636392
:1002600065737366756C6C21004D61696E207072E8
:100270006F6772616D20737461727473206E6F7733
:0202800000007C
:00000001FF
