:100000000C9472000C9487000C9487000C94870069
:100010000C9487000C9487000C9487000C94870044
:100020000C9487000C9487000C9487000C94870034
:100030000C9487000C9487000C9487000C94870024
:100040000C9487000C9487000C9487000C94870014
:100050000C9487000C9487000C9487000C94870004
:100060000C9487000C9487000C9487000C948700F4
:100070000C9487000C9487000C9487000C948700E4
:100080000C9487000C9487000C9487000C948700D4
:100090000C9487000C9487000C9487000C948700C4
:1000A0000C9487000C9487000C9487000C948700B4
:1000B0000C9487000C9487000C9487000C948700A4
:1000C0000C9487000C9487000C9487000C94870094
:1000D0000C9487000C9487000C9487000C94870084
:1000E0000C94870011241FBECFEFD1E2DEBFCDBF3D
:1000F00012E0A0E0B2E0E6ECF1E002C005900D9263
:10010000A238B107D9F70E9489000C94E1000C9441
:1001100000000E94BA0080E092E00E94CC0084E2DD
:1001200092E00E94CC000E94B00088E392E00E941E
:10013000CC008BE492E00E94CC0089E692E00E9421
:10014000CC00C0E08C2F0E94B800CF5F2FEF83EC73
:1001500099E0215080409040E1F700C00000F2CFCC
:100160008FEF84B915B883EA84BD85E085BD089515
:1001700087BD089587E68093C40088E18093C1001D
:100180008EE08093C2000895E0ECF0E0908195FF4E
:10019000FDCF8093C6000895CF93DF93EC01888153
:1001A000882331F021960E94C40089918111FBCFF0
:1001B0008DE00E94C4008AE00E94C400DF91CF91CC
:0601C0000895F894FFCF42
:1001C6002A2A2A2051432D424C4344204F53205380
:1001D6007461727475702053657175656E63652000
:1001E6002A2A2A00203E205541525420696E6974FD
:1001F60069616C697A656400203E2050574D20691C
:100206006E697469616C697A6564005374617274AD
:1002160075702053657175656E63652073756363CC
:1002260065737366756C6C21004D61696E20707222
:100236006F6772616D20737461727473206E6F776D
:020246000000B6
:00000001FF
